{
  "_format": "hh-sol-artifact-1",
  "contractName": "AutoCharge",
  "sourceName": "contracts/AutoCharge.sol",
  "abi": [
    {
      "anonymous": false,
      "inputs": [
        {
          "indexed": true,
          "internalType": "address",
          "name": "station",
          "type": "address"
        },
        {
          "indexed": true,
          "internalType": "address",
          "name": "vehicle",
          "type": "address"
        },
        {
          "indexed": false,
          "internalType": "uint256",
          "name": "energyKwh",
          "type": "uint256"
        },
        {
          "indexed": false,
          "internalType": "uint256",
          "name": "cost",
          "type": "uint256"
        }
      ],
      "name": "SessionCompleted",
      "type": "event"
    },
    {
      "inputs": [
        {
          "internalType": "address",
          "name": "",
          "type": "address"
        }
      ],
      "name": "activeSessions",
      "outputs": [
        {
          "internalType": "address",
          "name": "vehicle",
          "type": "address"
        },
        {
          "internalType": "address",
          "name": "station",
          "type": "address"
        },
        {
          "internalType": "uint256",
          "name": "startTime",
          "type": "uint256"
        },
        {
          "internalType": "bool",
          "name": "isActive",
          "type": "bool"
        }
      ],
      "stateMutability": "view",
      "type": "function"
    },
    {
      "inputs": [
        {
          "internalType": "address",
          "name": "_station",
          "type": "address"
        },
        {
          "internalType": "uint256",
          "name": "_energyKwh",
          "type": "uint256"
        }
      ],
      "name": "endSession",
      "outputs": [],
      "stateMutability": "payable",
      "type": "function"
    },
    {
      "inputs": [],
      "name": "pricePerKwh",
      "outputs": [
        {
          "internalType": "uint256",
          "name": "",
          "type": "uint256"
        }
      ],
      "stateMutability": "view",
      "type": "function"
    },
    {
      "inputs": [
        {
          "internalType": "address",
          "name": "_vehicle",
          "type": "address"
        }
      ],
      "name": "startSession",
      "outputs": [],
      "stateMutability": "nonpayable",
      "type": "function"
    }
  ],
  "bytecode": "0x6080604052655af3107a4000600055348015601957600080fd5b50610c97806100296000396000f3fe60806040526004361061003f5760003560e01c806323ef29361461004457806352f0bf6e14610084578063d4303928146100ad578063d4ea6f33146100d8575b600080fd5b34801561005057600080fd5b5061006b600480360381019061006691906107a6565b6100f4565b60405161007b9493929190610816565b60405180910390f35b34801561009057600080fd5b506100ab60048036038101906100a691906107a6565b610171565b005b3480156100b957600080fd5b506100c261034e565b6040516100cf919061085b565b60405180910390f35b6100f260048036038101906100ed91906108a2565b610354565b005b60016020528060005260406000206000915090508060000160009054906101000a900473ffffffffffffffffffffffffffffffffffffffff16908060010160009054906101000a900473ffffffffffffffffffffffffffffffffffffffff16908060020154908060030160009054906101000a900460ff16905084565b600160003373ffffffffffffffffffffffffffffffffffffffff1673ffffffffffffffffffffffffffffffffffffffff16815260200190815260200160002060030160009054906101000a900460ff1615610201576040517f08c379a00000000000000000000000000000000000000000000000000000000081526004016101f89061093f565b60405180910390fd5b60405180608001604052808273ffffffffffffffffffffffffffffffffffffffff1681526020013373ffffffffffffffffffffffffffffffffffffffff16815260200142815260200160011515815250600160003373ffffffffffffffffffffffffffffffffffffffff1673ffffffffffffffffffffffffffffffffffffffff16815260200190815260200160002060008201518160000160006101000a81548173ffffffffffffffffffffffffffffffffffffffff021916908373ffffffffffffffffffffffffffffffffffffffff16021790555060208201518160010160006101000a81548173ffffffffffffffffffffffffffffffffffffffff021916908373ffffffffffffffffffffffffffffffffffffffff1602179055506040820151816002015560608201518160030160006101000a81548160ff02191690831515021790555090505050565b60005481565b6000600160008473ffffffffffffffffffffffffffffffffffffffff1673ffffffffffffffffffffffffffffffffffffffff1681526020019081526020016000206040518060800160405290816000820160009054906101000a900473ffffffffffffffffffffffffffffffffffffffff1673ffffffffffffffffffffffffffffffffffffffff1673ffffffffffffffffffffffffffffffffffffffff1681526020016001820160009054906101000a900473ffffffffffffffffffffffffffffffffffffffff1673ffffffffffffffffffffffffffffffffffffffff1673ffffffffffffffffffffffffffffffffffffffff168152602001600282015481526020016003820160009054906101000a900460ff161515151581525050905080606001516104b7576040517f08c379a00000000000000000000000000000000000000000000000000000000081526004016104ae906109d1565b60405180910390fd5b806000015173ffffffffffffffffffffffffffffffffffffffff163373ffffffffffffffffffffffffffffffffffffffff1614610529576040517f08c379a000000000000000000000000000000000000000000000000000000000815260040161052090610a63565b60405180910390fd5b60008054836105389190610ab2565b90508034101561057d576040517f08c379a000000000000000000000000000000000000000000000000000000000815260040161057490610b66565b60405180910390fd5b60008473ffffffffffffffffffffffffffffffffffffffff16826040516105a390610bb7565b60006040518083038185875af1925050503d80600081146105e0576040519150601f19603f3d011682016040523d82523d6000602084013e6105e5565b606091505b5050905080610629576040517f08c379a000000000000000000000000000000000000000000000000000000000815260040161062090610c18565b60405180910390fd5b3373ffffffffffffffffffffffffffffffffffffffff168573ffffffffffffffffffffffffffffffffffffffff167f15cf3f3299db113f25ccb5ed54134ee74ddace8e59401938fdc3b0567aa7b8638685604051610688929190610c38565b60405180910390a3600160008673ffffffffffffffffffffffffffffffffffffffff1673ffffffffffffffffffffffffffffffffffffffff168152602001908152602001600020600080820160006101000a81549073ffffffffffffffffffffffffffffffffffffffff02191690556001820160006101000a81549073ffffffffffffffffffffffffffffffffffffffff021916905560028201600090556003820160006101000a81549060ff021916905550505050505050565b600080fd5b600073ffffffffffffffffffffffffffffffffffffffff82169050919050565b600061077382610748565b9050919050565b61078381610768565b811461078e57600080fd5b50565b6000813590506107a08161077a565b92915050565b6000602082840312156107bc576107bb610743565b5b60006107ca84828501610791565b91505092915050565b6107dc81610768565b82525050565b6000819050919050565b6107f5816107e2565b82525050565b60008115159050919050565b610810816107fb565b82525050565b600060808201905061082b60008301876107d3565b61083860208301866107d3565b61084560408301856107ec565b6108526060830184610807565b95945050505050565b600060208201905061087060008301846107ec565b92915050565b61087f816107e2565b811461088a57600080fd5b50565b60008135905061089c81610876565b92915050565b600080604083850312156108b9576108b8610743565b5b60006108c785828601610791565b92505060206108d88582860161088d565b9150509250929050565b600082825260208201905092915050565b7f53746174696f6e20697320616c726561647920627573792e0000000000000000600082015250565b60006109296018836108e2565b9150610934826108f3565b602082019050919050565b600060208201905081810360008301526109588161091c565b9050919050565b7f4e6f206163746976652073657373696f6e20666f72207468697320737461746960008201527f6f6e2e0000000000000000000000000000000000000000000000000000000000602082015250565b60006109bb6023836108e2565b91506109c68261095f565b604082019050919050565b600060208201905081810360008301526109ea816109ae565b9050919050565b7f4f6e6c79207468652076656869636c652063616e20656e64207468697320736560008201527f7373696f6e2e0000000000000000000000000000000000000000000000000000602082015250565b6000610a4d6026836108e2565b9150610a58826109f1565b604082019050919050565b60006020820190508181036000830152610a7c81610a40565b9050919050565b7f4e487b7100000000000000000000000000000000000000000000000000000000600052601160045260246000fd5b6000610abd826107e2565b9150610ac8836107e2565b9250828202610ad6816107e2565b91508282048414831517610aed57610aec610a83565b5b5092915050565b7f496e73756666696369656e74207061796d656e7420666f7220656e657267792060008201527f636f6e73756d65642e0000000000000000000000000000000000000000000000602082015250565b6000610b506029836108e2565b9150610b5b82610af4565b604082019050919050565b60006020820190508181036000830152610b7f81610b43565b9050919050565b600081905092915050565b50565b6000610ba1600083610b86565b9150610bac82610b91565b600082019050919050565b6000610bc282610b94565b9150819050919050565b7f5061796d656e74207472616e73666572206661696c65642e0000000000000000600082015250565b6000610c026018836108e2565b9150610c0d82610bcc565b602082019050919050565b60006020820190508181036000830152610c3181610bf5565b9050919050565b6000604082019050610c4d60008301856107ec565b610c5a60208301846107ec565b939250505056fea2646970667358221220f6af4d5501bb5eda31faa64f76262117674d006c7dab728e301869b811015b6164736f6c634300081c0033",
  "linkReferences": {},
  "deployedLinkReferences": {}
}